{
  "contractName": "SignupAndAttendance",
  "abi": [
    {
      "constant": true,
      "inputs": [
        {
          "name": "",
          "type": "address"
        }
      ],
      "name": "balances",
      "outputs": [
        {
          "name": "",
          "type": "uint256"
        }
      ],
      "payable": false,
      "stateMutability": "view",
      "type": "function"
    },
    {
      "constant": true,
      "inputs": [
        {
          "name": "",
          "type": "address"
        }
      ],
      "name": "students",
      "outputs": [
        {
          "name": "name",
          "type": "bytes32"
        },
        {
          "name": "email",
          "type": "bytes32"
        }
      ],
      "payable": false,
      "stateMutability": "view",
      "type": "function"
    },
    {
      "constant": true,
      "inputs": [
        {
          "name": "",
          "type": "uint256"
        }
      ],
      "name": "studentAccounts",
      "outputs": [
        {
          "name": "",
          "type": "address"
        }
      ],
      "payable": false,
      "stateMutability": "view",
      "type": "function"
    },
    {
      "inputs": [],
      "payable": false,
      "stateMutability": "nonpayable",
      "type": "constructor"
    },
    {
      "payable": false,
      "stateMutability": "nonpayable",
      "type": "fallback"
    },
    {
      "anonymous": false,
      "inputs": [
        {
          "indexed": false,
          "name": "loginRecord",
          "type": "string"
        }
      ],
      "name": "StudentLoginEvent",
      "type": "event"
    },
    {
      "anonymous": false,
      "inputs": [
        {
          "indexed": false,
          "name": "courseData",
          "type": "string"
        }
      ],
      "name": "SignupEvent",
      "type": "event"
    },
    {
      "anonymous": false,
      "inputs": [
        {
          "indexed": false,
          "name": "courseData",
          "type": "string"
        }
      ],
      "name": "AttendanceTakingEvent",
      "type": "event"
    },
    {
      "anonymous": false,
      "inputs": [
        {
          "indexed": false,
          "name": "_sender",
          "type": "address"
        }
      ],
      "name": "FallbackEvent",
      "type": "event"
    },
    {
      "constant": false,
      "inputs": [],
      "name": "toggleEmergencyStopStatus",
      "outputs": [
        {
          "name": "success",
          "type": "bool"
        }
      ],
      "payable": false,
      "stateMutability": "nonpayable",
      "type": "function"
    },
    {
      "constant": true,
      "inputs": [],
      "name": "checkActive",
      "outputs": [
        {
          "name": "stoppedstatus",
          "type": "bool"
        }
      ],
      "payable": false,
      "stateMutability": "view",
      "type": "function"
    },
    {
      "constant": false,
      "inputs": [
        {
          "name": "_name",
          "type": "bytes32"
        },
        {
          "name": "_email",
          "type": "bytes32"
        },
        {
          "name": "_loginRecord",
          "type": "string"
        }
      ],
      "name": "StudentLogin",
      "outputs": [],
      "payable": false,
      "stateMutability": "nonpayable",
      "type": "function"
    },
    {
      "constant": false,
      "inputs": [
        {
          "name": "_courseId",
          "type": "string"
        },
        {
          "name": "_courseData",
          "type": "string"
        }
      ],
      "name": "Signup",
      "outputs": [],
      "payable": true,
      "stateMutability": "payable",
      "type": "function"
    },
    {
      "constant": false,
      "inputs": [
        {
          "name": "_courseData",
          "type": "string"
        }
      ],
      "name": "AttendanceTaking",
      "outputs": [],
      "payable": false,
      "stateMutability": "nonpayable",
      "type": "function"
    },
    {
      "constant": true,
      "inputs": [
        {
          "name": "a",
          "type": "string"
        },
        {
          "name": "b",
          "type": "string"
        }
      ],
      "name": "compareStrings",
      "outputs": [
        {
          "name": "",
          "type": "bool"
        }
      ],
      "payable": false,
      "stateMutability": "view",
      "type": "function"
    }
  ],
  "bytecode": "0x60806040526000600460006101000a81548160ff02191690831515021790555034801561002b57600080fd5b50336000806101000a81548173ffffffffffffffffffffffffffffffffffffffff021916908373ffffffffffffffffffffffffffffffffffffffff160217905550610dd08061007b6000396000f300608060405260043610610099576000357c0100000000000000000000000000000000000000000000000000000000900463ffffffff16806327e235e31461010b578063396e5fee14610162578063950936a91461019157806396d52a8314610216578063a6c807a9146102b8578063a7a205b914610326578063afcc8a5914610355578063bed34bba146103be578063cd4e002514610485575b3480156100a557600080fd5b507f6125c2f3d3934c922906127a0cfeab5dfa2450fd2366c3c398fb7a0e16d1997c33604051808273ffffffffffffffffffffffffffffffffffffffff1673ffffffffffffffffffffffffffffffffffffffff16815260200191505060405180910390a1005b34801561011757600080fd5b5061014c600480360381019080803573ffffffffffffffffffffffffffffffffffffffff1690602001909291905050506104f2565b6040518082815260200191505060405180910390f35b34801561016e57600080fd5b5061017761050a565b604051808215151515815260200191505060405180910390f35b34801561019d57600080fd5b5061021460048036038101908080356000191690602001909291908035600019169060200190929190803590602001908201803590602001908080601f0160208091040260200160405190810160405280939291908181526020018383808284378201915050505050509192919290505050610521565b005b6102b6600480360381019080803590602001908201803590602001908080601f0160208091040260200160405190810160405280939291908181526020018383808284378201915050505050509192919290803590602001908201803590602001908080601f01602080910402602001604051908101604052809392919081815260200183838082843782019150505050505091929192905050506106e8565b005b3480156102c457600080fd5b506102f9600480360381019080803573ffffffffffffffffffffffffffffffffffffffff16906020019092919050505061098d565b60405180836000191660001916815260200182600019166000191681526020019250505060405180910390f35b34801561033257600080fd5b5061033b6109b1565b604051808215151515815260200191505060405180910390f35b34801561036157600080fd5b506103bc600480360381019080803590602001908201803590602001908080601f0160208091040260200160405190810160405280939291908181526020018383808284378201915050505050509192919290505050610a4d565b005b3480156103ca57600080fd5b5061046b600480360381019080803590602001908201803590602001908080601f0160208091040260200160405190810160405280939291908181526020018383808284378201915050505050509192919290803590602001908201803590602001908080601f0160208091040260200160405190810160405280939291908181526020018383808284378201915050505050509192919290505050610be8565b604051808215151515815260200191505060405180910390f35b34801561049157600080fd5b506104b060048036038101908080359060200190929190505050610cc1565b604051808273ffffffffffffffffffffffffffffffffffffffff1673ffffffffffffffffffffffffffffffffffffffff16815260200191505060405180910390f35b60016020528060005260406000206000915090505481565b6000600460009054906101000a900460ff16905090565b600080600460009054906101000a900460ff1615151561054057600080fd5b339150600260008373ffffffffffffffffffffffffffffffffffffffff1673ffffffffffffffffffffffffffffffffffffffff16815260200190815260200160002090508481600001816000191690555083816001018160001916905550806002018390806001815401808255809150509060018203906000526020600020016000909192909190915090805190602001906105dd929190610cff565b505060038290806001815401808255809150509060018203906000526020600020016000909192909190916101000a81548173ffffffffffffffffffffffffffffffffffffffff021916908373ffffffffffffffffffffffffffffffffffffffff160217905550507f61d98b8d2f4bad25be3f9d10aec775f7104a20cd822164a1a3bda45196d354e4836040518080602001828103825283818151815260200191508051906020019080838360005b838110156106a757808201518184015260208101905061068c565b50505050905090810190601f1680156106d45780820380516001836020036101000a031916815260200191505b509250505060405180910390a15050505050565b60008060009054906101000a900473ffffffffffffffffffffffffffffffffffffffff1673ffffffffffffffffffffffffffffffffffffffff163373ffffffffffffffffffffffffffffffffffffffff1614151561074557600080fd5b600460009054906101000a900460ff1615151561076157600080fd5b6107a06040805190810160405280601381526020017f696e74726f2d746f2d626c6f636b636861696e0000000000000000000000000081525084610be8565b15610806576000341415156107b457600080fd5b34600160003373ffffffffffffffffffffffffffffffffffffffff1673ffffffffffffffffffffffffffffffffffffffff1681526020019081526020016000206000828254019250508190555061086a565b671bc16d674ec800003414151561081c57600080fd5b34600160003373ffffffffffffffffffffffffffffffffffffffff1673ffffffffffffffffffffffffffffffffffffffff168152602001908152602001600020600082825401925050819055505b600260003373ffffffffffffffffffffffffffffffffffffffff1673ffffffffffffffffffffffffffffffffffffffff1681526020019081526020016000209050806003018290806001815401808255809150509060018203906000526020600020016000909192909190915090805190602001906108ea929190610cff565b50507f119232a901dc5476d82dab68b92e3f0fa5fca7a2fe5cd73edf17e625691e7240826040518080602001828103825283818151815260200191508051906020019080838360005b8381101561094e578082015181840152602081019050610933565b50505050905090810190601f16801561097b5780820380516001836020036101000a031916815260200191505b509250505060405180910390a1505050565b60026020528060005260406000206000915090508060000154908060010154905082565b60008060009054906101000a900473ffffffffffffffffffffffffffffffffffffffff1673ffffffffffffffffffffffffffffffffffffffff163373ffffffffffffffffffffffffffffffffffffffff16141515610a0e57600080fd5b600460009054906101000a900460ff1615600460006101000a81548160ff021916908315150217905550600460009054906101000a900460ff16905090565b60008060009054906101000a900473ffffffffffffffffffffffffffffffffffffffff1673ffffffffffffffffffffffffffffffffffffffff163373ffffffffffffffffffffffffffffffffffffffff16141515610aaa57600080fd5b600460009054906101000a900460ff16151515610ac657600080fd5b600260003373ffffffffffffffffffffffffffffffffffffffff1673ffffffffffffffffffffffffffffffffffffffff168152602001908152602001600020905080600401829080600181540180825580915050906001820390600052602060002001600090919290919091509080519060200190610b46929190610cff565b50507fb37f89d5bdf496c414ad462968f4bf5c63b6ef231b491c8d619d843a463ee5f9826040518080602001828103825283818151815260200191508051906020019080838360005b83811015610baa578082015181840152602081019050610b8f565b50505050905090810190601f168015610bd75780820380516001836020036101000a031916815260200191505b509250505060405180910390a15050565b6000816040518082805190602001908083835b602083101515610c205780518252602082019150602081019050602083039250610bfb565b6001836020036101000a038019825116818451168082178552505050505050905001915050604051809103902060001916836040518082805190602001908083835b602083101515610c875780518252602082019150602081019050602083039250610c62565b6001836020036101000a03801982511681845116808217855250505050505090500191505060405180910390206000191614905092915050565b600381815481101515610cd057fe5b906000526020600020016000915054906101000a900473ffffffffffffffffffffffffffffffffffffffff1681565b828054600181600116156101000203166002900490600052602060002090601f016020900481019282601f10610d4057805160ff1916838001178555610d6e565b82800160010185558215610d6e579182015b82811115610d6d578251825591602001919060010190610d52565b5b509050610d7b9190610d7f565b5090565b610da191905b80821115610d9d576000816000905550600101610d85565b5090565b905600a165627a7a723058203369e33755450c027c5e4e5a2a72e9aee9114f50b0beda3001f773c2505d1d200029",
  "source": "pragma solidity 0.4.24; //Protection in place: Solidity Pragma locked\n\n// ****** Notes ******/\n// Protections in place:\n// \t- Solidity Pragma locked\n// \t- Circuit Breaker - Emergency stop by Contract Creator\n//\n// Protections not implemented:\n// \t- Rentrancy protection\n// \t- Overflow protection\n// \t- Underflow protection\n// \t- Speed bumps\n//\n//\n// Coding practices in place:\n// \t- Explicitly marking visibility in functions and state variables\n//\t- Differentiating functions and events\n//\t- Keeping fallback functions simple\n// ********************\n\ncontract Owned\n{\n    address private _owner;\n    \n    constructor() public\n    {\n        _owner = msg.sender;\n    }\n    \n   modifier onlyOwner\n   {\n       require(msg.sender == _owner);\n       _;\n   }\n}\n\ncontract SignupAndAttendance is Owned\n{\n\tstruct Student\n\t{\n\t\tbytes32 name;\n\t\tbytes32 email;\n\t\tstring[] loginRecord;\n\t\tstring[] signupRecord;\n\t\tstring[] coursesCompletedRecord;\n\t}\n\n\tmapping (address => uint) public balances;\n\tmapping (address => Student) public students;\n\n\taddress[] public studentAccounts;\n\n\tevent StudentLoginEvent(string loginRecord);\n\tevent SignupEvent(string courseData);\n\tevent AttendanceTakingEvent(string courseData);\n\n\tevent FallbackEvent(address _sender); //For the fallback function\n\n\t//****** Protections in place: Avoiding common attacks ******\n\t\tbool private _stopped = false; //For Circuit Breaker\n\n\t\tfunction toggleEmergencyStopStatus() onlyOwner public returns(bool success)\n\t\t{\n\t\t    _stopped = !_stopped; // Toggle the value of stopped\n\t\t    return _stopped;\n\t\t}\n\n\t\t// Emergency stop\n\t\tmodifier stopInEmergency\n\t\t{\n\t\t\trequire(!_stopped);\n\t\t\t_;\n\t\t}\n\n\t\t// Normal operation and emergency\n\t\tmodifier onlyInEmergency\n\t\t{\n\t\t\tif (_stopped)\n\t\t\t_;\n\t\t}\n\n\t\t// Check if the status of the contract is active\n\t\tfunction checkActive() public view returns(bool stoppedstatus)\n\t\t{\n\t\t\treturn _stopped;\n\t\t}\n\t//***********************************************************\n\n\tconstructor() public \n\t{\n\n\t}\n\n\tfunction StudentLogin(bytes32 _name, bytes32 _email, string _loginRecord) stopInEmergency public\n\t{\n\t\tvar _address = msg.sender;\n\t\tStudent storage student = students[_address];\n\n\t\tstudent.name = _name;\n\t\tstudent.email = _email;\n\t\tstudent.loginRecord.push(_loginRecord);\n\n\t\tstudentAccounts.push(_address);\n\n\t\temit StudentLoginEvent(_loginRecord);\n\t}\n\n\tfunction Signup(string _courseId, string _courseData) onlyOwner stopInEmergency payable public\n\t{\n\t\t//require(courseId >= 0 && courseId <= 2);\n\t\t//bytes32 memory temp = \"intro-to-blockchain\";\n\n\t\t//bytes32 test = stringToBytes32(_courseId);\n\t  \t\n\t  \tif(compareStrings(\"intro-to-blockchain\", _courseId))\n\t  \t{\n\t\t\trequire(msg.value == 0 ether);\n\t\t\tbalances[msg.sender] += msg.value;\n\t  \t}\n\t  \telse\n\t  \t{\n\t  \t\trequire(msg.value == 2 ether);\n\t\t\tbalances[msg.sender] += msg.value;\n\t  \t}\n\n\t  \tStudent storage student = students[msg.sender];\n\t\tstudent.signupRecord.push(_courseData);\n\n\t\temit SignupEvent(_courseData);\n\n\t  //Return the total number of courses signed up for by the attendee.\n\t  //return attendees[msg.sender].signups.push(courseId) - 1;\n\t}\n\n\tfunction AttendanceTaking(string _courseData) onlyOwner stopInEmergency public\n\t{\n\t\tStudent storage student = students[msg.sender];\n\t\tstudent.coursesCompletedRecord.push(_courseData);\n\n\t\temit AttendanceTakingEvent(_courseData);\n\t}\n\n\t// function EmitCourseSignupSucessful(_courseId)\n\t// {\n\t// \temit CourseSignupSucessful(_courseId);\n\t// }\n\n\t// function EtherToWei (uint _ether) view public returns (uint)\n\t// {\n\t// \treturn _ether * 1000000000000000000;\n\t// }\n\n\t//****** Taken from https://ethereum.stackexchange.com/questions/30912/how-to-compare-strings-in-solidity\n\tfunction compareStrings (string a, string b) view public returns (bool)\n\t{\n       return keccak256(a) == keccak256(b);\n   \t}\n   \t//******\n\n   \t//****** Fallback function\n\tfunction () public\n\t{\n\t\temit FallbackEvent(msg.sender);\n    }\n    //******\n\n\t// //****** Taken from https://ethereum.stackexchange.com/questions/23549/convert-string-to-bytes32-in-web3j\n\t// function stringToBytes32 (string _string) view public\n\t// {\n\t//   byte[] storage byteValue = string.getBytes();\n\t//   byte[] storage byteValueLen32 = new byte[32];\n\t//   System.arraycopy(byteValue, 0, byteValueLen32, 0, byteValue.length);\n\t//   return new Bytes32(byteValueLen32);\n\t// }\t\n\t// //******\n}",
  "sourcePath": "/home/fritzlim/Desktop/Projects/ConsenSys/2018DeveloperProgram/EthereumAttendanceTaking/contracts/SignupAndAttendance.sol",
  "compiler": {
    "name": "solc",
    "version": "0.4.24+commit.e67f0147.Emscripten.clang"
  },
  "schemaVersion": "2.0.1",
  "updatedAt": "2018-08-26T16:25:56.362Z"
}