{
  "contractName": "SignupAndAttendance",
  "abi": [
    {
      "constant": true,
      "inputs": [
        {
          "name": "",
          "type": "address"
        }
      ],
      "name": "balances",
      "outputs": [
        {
          "name": "",
          "type": "uint256"
        }
      ],
      "payable": false,
      "stateMutability": "view",
      "type": "function"
    },
    {
      "constant": true,
      "inputs": [
        {
          "name": "",
          "type": "address"
        }
      ],
      "name": "students",
      "outputs": [
        {
          "name": "name",
          "type": "bytes32"
        },
        {
          "name": "email",
          "type": "bytes32"
        }
      ],
      "payable": false,
      "stateMutability": "view",
      "type": "function"
    },
    {
      "constant": true,
      "inputs": [
        {
          "name": "",
          "type": "uint256"
        }
      ],
      "name": "studentAccounts",
      "outputs": [
        {
          "name": "",
          "type": "address"
        }
      ],
      "payable": false,
      "stateMutability": "view",
      "type": "function"
    },
    {
      "inputs": [],
      "payable": false,
      "stateMutability": "nonpayable",
      "type": "constructor"
    },
    {
      "payable": false,
      "stateMutability": "nonpayable",
      "type": "fallback"
    },
    {
      "anonymous": false,
      "inputs": [
        {
          "indexed": false,
          "name": "loginRecord",
          "type": "string"
        }
      ],
      "name": "StudentLoginEvent",
      "type": "event"
    },
    {
      "anonymous": false,
      "inputs": [
        {
          "indexed": false,
          "name": "courseData",
          "type": "string"
        }
      ],
      "name": "SignupEvent",
      "type": "event"
    },
    {
      "anonymous": false,
      "inputs": [
        {
          "indexed": false,
          "name": "courseData",
          "type": "string"
        }
      ],
      "name": "AttendanceTakingEvent",
      "type": "event"
    },
    {
      "anonymous": false,
      "inputs": [
        {
          "indexed": false,
          "name": "stopped",
          "type": "bool"
        }
      ],
      "name": "EmergencyStopEvent",
      "type": "event"
    },
    {
      "anonymous": false,
      "inputs": [
        {
          "indexed": false,
          "name": "_sender",
          "type": "address"
        }
      ],
      "name": "FallbackEvent",
      "type": "event"
    },
    {
      "constant": false,
      "inputs": [],
      "name": "toggleEmergencyStopStatus",
      "outputs": [
        {
          "name": "stoppedStatus",
          "type": "bool"
        }
      ],
      "payable": false,
      "stateMutability": "nonpayable",
      "type": "function"
    },
    {
      "constant": true,
      "inputs": [],
      "name": "checkActive",
      "outputs": [
        {
          "name": "stoppedstatus",
          "type": "bool"
        }
      ],
      "payable": false,
      "stateMutability": "view",
      "type": "function"
    },
    {
      "constant": false,
      "inputs": [
        {
          "name": "_courseId",
          "type": "string"
        },
        {
          "name": "_courseData",
          "type": "string"
        }
      ],
      "name": "Signup",
      "outputs": [],
      "payable": true,
      "stateMutability": "payable",
      "type": "function"
    }
  ],
  "bytecode": "0x60806040526000600460006101000a81548160ff02191690831515021790555034801561002b57600080fd5b50336000806101000a81548173ffffffffffffffffffffffffffffffffffffffff021916908373ffffffffffffffffffffffffffffffffffffffff1602179055506108e28061007b6000396000f300608060405260043610610078576000357c0100000000000000000000000000000000000000000000000000000000900463ffffffff16806327e235e3146100ea578063396e5fee1461014157806396d52a8314610170578063a6c807a914610212578063a7a205b914610280578063cd4e0025146102af575b34801561008457600080fd5b507f6125c2f3d3934c922906127a0cfeab5dfa2450fd2366c3c398fb7a0e16d1997c33604051808273ffffffffffffffffffffffffffffffffffffffff1673ffffffffffffffffffffffffffffffffffffffff16815260200191505060405180910390a1005b3480156100f657600080fd5b5061012b600480360381019080803573ffffffffffffffffffffffffffffffffffffffff16906020019092919050505061031c565b6040518082815260200191505060405180910390f35b34801561014d57600080fd5b50610156610334565b604051808215151515815260200191505060405180910390f35b610210600480360381019080803590602001908201803590602001908080601f0160208091040260200160405190810160405280939291908181526020018383808284378201915050505050509192919290803590602001908201803590602001908080601f016020809104026020016040519081016040528093929190818152602001838380828437820191505050505050919291929050505061034b565b005b34801561021e57600080fd5b50610253600480360381019080803573ffffffffffffffffffffffffffffffffffffffff1690602001909291905050506105f0565b60405180836000191660001916815260200182600019166000191681526020019250505060405180910390f35b34801561028c57600080fd5b50610295610614565b604051808215151515815260200191505060405180910390f35b3480156102bb57600080fd5b506102da600480360381019080803590602001909291905050506106fa565b604051808273ffffffffffffffffffffffffffffffffffffffff1673ffffffffffffffffffffffffffffffffffffffff16815260200191505060405180910390f35b60016020528060005260406000206000915090505481565b6000600460009054906101000a900460ff16905090565b60008060009054906101000a900473ffffffffffffffffffffffffffffffffffffffff1673ffffffffffffffffffffffffffffffffffffffff163373ffffffffffffffffffffffffffffffffffffffff161415156103a857600080fd5b600460009054906101000a900460ff161515156103c457600080fd5b6104036040805190810160405280601381526020017f696e74726f2d746f2d626c6f636b636861696e0000000000000000000000000081525084610738565b156104695760003414151561041757600080fd5b34600160003373ffffffffffffffffffffffffffffffffffffffff1673ffffffffffffffffffffffffffffffffffffffff168152602001908152602001600020600082825401925050819055506104cd565b671bc16d674ec800003414151561047f57600080fd5b34600160003373ffffffffffffffffffffffffffffffffffffffff1673ffffffffffffffffffffffffffffffffffffffff168152602001908152602001600020600082825401925050819055505b600260003373ffffffffffffffffffffffffffffffffffffffff1673ffffffffffffffffffffffffffffffffffffffff16815260200190815260200160002090508060030182908060018154018082558091505090600182039060005260206000200160009091929091909150908051906020019061054d929190610811565b50507f119232a901dc5476d82dab68b92e3f0fa5fca7a2fe5cd73edf17e625691e7240826040518080602001828103825283818151815260200191508051906020019080838360005b838110156105b1578082015181840152602081019050610596565b50505050905090810190601f1680156105de5780820380516001836020036101000a031916815260200191505b509250505060405180910390a1505050565b60026020528060005260406000206000915090508060000154908060010154905082565b60008060009054906101000a900473ffffffffffffffffffffffffffffffffffffffff1673ffffffffffffffffffffffffffffffffffffffff163373ffffffffffffffffffffffffffffffffffffffff1614151561067157600080fd5b600460009054906101000a900460ff1615600460006101000a81548160ff0219169083151502179055507f3443ae3b5054599f9307108d4f0a41e64d9b8920cfbca3e35c9279671510c410600460009054906101000a900460ff16604051808215151515815260200191505060405180910390a1600460009054906101000a900460ff16905090565b60038181548110151561070957fe5b906000526020600020016000915054906101000a900473ffffffffffffffffffffffffffffffffffffffff1681565b6000816040518082805190602001908083835b602083101515610770578051825260208201915060208101905060208303925061074b565b6001836020036101000a038019825116818451168082178552505050505050905001915050604051809103902060001916836040518082805190602001908083835b6020831015156107d757805182526020820191506020810190506020830392506107b2565b6001836020036101000a03801982511681845116808217855250505050505090500191505060405180910390206000191614905092915050565b828054600181600116156101000203166002900490600052602060002090601f016020900481019282601f1061085257805160ff1916838001178555610880565b82800160010185558215610880579182015b8281111561087f578251825591602001919060010190610864565b5b50905061088d9190610891565b5090565b6108b391905b808211156108af576000816000905550600101610897565b5090565b905600a165627a7a7230582085acea849956ba836b0de04592c0002790e6dad1ba59cbe2184d77a2ac38f2f80029",
  "source": "pragma solidity 0.4.24; //Protection in place: Solidity Pragma locked\n\n// ****** Notes ******/\n// Protections in place:\n// \t- Solidity Pragma locked\n// \t- Circuit Breaker - Emergency stop by Contract Creator\n//\n// Protections not implemented:\n// \t- Rentrancy protection\n// \t- Overflow protection\n// \t- Underflow protection\n// \t- Speed bumps\n//\n//\n// Coding practices in place:\n// \t- Explicitly marking visibility in functions and state variables\n//\t- Differentiating functions and events\n//\t- Keeping fallback functions simple\n// ********************\n\ncontract Owned\n{\n    address private _owner;\n    \n    constructor() public\n    {\n        _owner = msg.sender;\n    }\n    \n   modifier onlyOwner\n   {\n       require(msg.sender == _owner);\n       _;\n   }\n}\n\ncontract SignupAndAttendance is Owned\n{\n\tstruct Student\n\t{\n\t\tbytes32 name;\n\t\tbytes32 email;\n\t\tstring[] loginRecord;\n\t\tstring[] signupRecord;\n\t\tstring[] coursesCompletedRecord;\n\t}\n\n\tmapping (address => uint) public balances;\n\tmapping (address => Student) public students;\n\n\taddress[] public studentAccounts;\n\n\tevent StudentLoginEvent(string loginRecord);\n\tevent SignupEvent(string courseData);\n\tevent AttendanceTakingEvent(string courseData);\n\n\tevent EmergencyStopEvent(bool stopped); //Protection in place: Event that's fired upon activation of circuit breaker\n\n\tevent FallbackEvent(address _sender); //For the fallback function\n\n\t//****** Protections in place: Avoiding common attacks ******\n\t\tbool private _stopped = false; //For Circuit Breaker\n\n\t\tfunction toggleEmergencyStopStatus() onlyOwner public returns(bool stoppedStatus)\n\t\t{\n\t\t    _stopped = !_stopped; // Toggle the value of stopped\n\t\t    emit EmergencyStopEvent(_stopped);\n\n\t\t    return _stopped;\n\t\t}\n\n\t\t// Emergency stop\n\t\tmodifier stopInEmergency\n\t\t{\n\t\t\trequire(!_stopped);\n\t\t\t_;\n\t\t}\n\n\t\t// Normal operation and emergency\n\t\tmodifier onlyInEmergency\n\t\t{\n\t\t\tif (_stopped)\n\t\t\t_;\n\t\t}\n\n\t\t// Check if the status of the contract is active\n\t\tfunction checkActive() public view returns(bool stoppedstatus)\n\t\t{\n\t\t\treturn _stopped;\n\t\t}\n\t//***********************************************************\n\n\tconstructor() public \n\t{\n\n\t}\n\n\tfunction StudentLogin(bytes32 _name, bytes32 _email, string _loginRecord) stopInEmergency private\n\t{\n\t\tvar _address = msg.sender;\n\t\tStudent storage student = students[_address];\n\n\t\tstudent.name = _name;\n\t\tstudent.email = _email;\n\t\tstudent.loginRecord.push(_loginRecord);\n\n\t\tstudentAccounts.push(_address);\n\n\t\temit StudentLoginEvent(_loginRecord);\n\t}\n\n\tfunction Signup(string _courseId, string _courseData) onlyOwner stopInEmergency payable public\n\t{\n\t\t//require(courseId >= 0 && courseId <= 2);\n\t\t//bytes32 memory temp = \"intro-to-blockchain\";\n\n\t\t//bytes32 test = stringToBytes32(_courseId);\n\t  \t\n\t  \tif(compareStrings(\"intro-to-blockchain\", _courseId))\n\t  \t{\n\t\t\trequire(msg.value == 0 ether);\n\t\t\tbalances[msg.sender] += msg.value;\n\t  \t}\n\t  \telse\n\t  \t{\n\t  \t\trequire(msg.value == 2 ether);\n\t\t\tbalances[msg.sender] += msg.value;\n\t  \t}\n\n\t  \tStudent storage student = students[msg.sender];\n\t\tstudent.signupRecord.push(_courseData);\n\n\t\temit SignupEvent(_courseData);\n\n\t  //Return the total number of courses signed up for by the attendee.\n\t  //return attendees[msg.sender].signups.push(courseId) - 1;\n\t}\n\n\tfunction AttendanceTaking(string _courseData) onlyOwner stopInEmergency private\n\t{\n\t\tStudent storage student = students[msg.sender];\n\t\tstudent.coursesCompletedRecord.push(_courseData);\n\n\t\temit AttendanceTakingEvent(_courseData);\n\t}\n\n\t// function EmitCourseSignupSucessful(_courseId)\n\t// {\n\t// \temit CourseSignupSucessful(_courseId);\n\t// }\n\n\t// function EtherToWei (uint _ether) view public returns (uint)\n\t// {\n\t// \treturn _ether * 1000000000000000000;\n\t// }\n\n\t//****** Taken from https://ethereum.stackexchange.com/questions/30912/how-to-compare-strings-in-solidity\n\tfunction compareStrings (string a, string b) view private returns (bool)\n\t{\n       return keccak256(a) == keccak256(b);\n   \t}\n   \t//******\n\n   \t//****** Fallback function\n\tfunction () private\n\t{\n\t\temit FallbackEvent(msg.sender);\n    }\n    //******\n\n\t// //****** Taken from https://ethereum.stackexchange.com/questions/23549/convert-string-to-bytes32-in-web3j\n\t// function stringToBytes32 (string _string) view public\n\t// {\n\t//   byte[] storage byteValue = string.getBytes();\n\t//   byte[] storage byteValueLen32 = new byte[32];\n\t//   System.arraycopy(byteValue, 0, byteValueLen32, 0, byteValue.length);\n\t//   return new Bytes32(byteValueLen32);\n\t// }\t\n\t// //******\n}",
  "sourcePath": "/home/fritzlim/Desktop/Projects/ConsenSys/2018DeveloperProgram/EthereumAttendanceTaking/contracts/SignupAndAttendance.sol",
  "compiler": {
    "name": "solc",
    "version": "0.4.24+commit.e67f0147.Emscripten.clang"
  },
  "schemaVersion": "2.0.1",
  "updatedAt": "2018-08-27T16:59:24.071Z"
}