{
  "contractName": "SignupAndAttendance",
  "abi": [
    {
      "constant": true,
      "inputs": [
        {
          "name": "",
          "type": "address"
        }
      ],
      "name": "balances",
      "outputs": [
        {
          "name": "",
          "type": "uint256"
        }
      ],
      "payable": false,
      "stateMutability": "view",
      "type": "function"
    },
    {
      "constant": true,
      "inputs": [
        {
          "name": "",
          "type": "address"
        }
      ],
      "name": "attendees",
      "outputs": [
        {
          "name": "name",
          "type": "bytes32"
        }
      ],
      "payable": false,
      "stateMutability": "view",
      "type": "function"
    },
    {
      "inputs": [],
      "payable": false,
      "stateMutability": "nonpayable",
      "type": "constructor"
    },
    {
      "constant": true,
      "inputs": [
        {
          "name": "courseId",
          "type": "bytes32"
        }
      ],
      "name": "Signup",
      "outputs": [],
      "payable": false,
      "stateMutability": "view",
      "type": "function"
    }
  ],
  "bytecode": "0x608060405234801561001057600080fd5b506102b0806100206000396000f300608060405260043610610057576000357c0100000000000000000000000000000000000000000000000000000000900463ffffffff16806327e235e31461005c578063396dc854146100b35780633a7254b414610112575b600080fd5b34801561006857600080fd5b5061009d600480360381019080803573ffffffffffffffffffffffffffffffffffffffff169060200190929190505050610143565b6040518082815260200191505060405180910390f35b3480156100bf57600080fd5b506100f4600480360381019080803573ffffffffffffffffffffffffffffffffffffffff16906020019092919050505061015b565b60405180826000191660001916815260200191505060405180910390f35b34801561011e57600080fd5b506101416004803603810190808035600019169060200190929190505050610179565b005b60006020528060005260406000206000915090505481565b60016020528060005260406000206000915090508060000154905081565b60007f696e74726f2d746f2d626c6f636b636861696e00000000000000000000000000826000191614151561020b57671bc16d674ec80000341415156101be57600080fd5b346000803373ffffffffffffffffffffffffffffffffffffffff1673ffffffffffffffffffffffffffffffffffffffff168152602001908152602001600020600082825401925050819055505b600160003373ffffffffffffffffffffffffffffffffffffffff1673ffffffffffffffffffffffffffffffffffffffff16815260200190815260200160002090508060010182908060018154018082558091505090600182039060005260206000200160009091929091909150906000191690555050505600a165627a7a723058205ef8791fd9efcf525bd4e06fb4026a9fbcb15bb5ef1b598ee7d11bb8bebbeaa30029",
  "source": "pragma solidity 0.4.24;\n\ncontract SignupAndAttendance\n{\n\tstruct Attendee\n\t{\n\t\t//bytes32 courseId;\n\t\tbytes32 name;\n\t\tbytes32[] signups; \n\t}\n\n\tmapping (address => uint) public balances;\n\tmapping (address => Attendee) public attendees;\n\n\tfunction SignupAndAttendance() public \n\t{\n\n\t}\n\n\tfunction Signup(bytes32 courseId) view public\n\t{\n\t\t//require(courseId >= 0 && courseId <= 2);\n\n\t  \tif(courseId != \"intro-to-blockchain\")\n\t  \t{\n\t\t\trequire(msg.value == 2 ether);\n\t\t\tbalances[msg.sender] += msg.value;\n\t  \t}\n\n\t  \tAttendee storage attendee = attendees[msg.sender];\n\t\tattendee.signups.push(courseId);\n\n\t  //Return the total number of courses signed up for by the attendee.\n\t  //return attendees[msg.sender].signups.push(courseId) - 1;\n\t}\n}",
  "sourcePath": "/home/fritzlim/Desktop/Projects/ConsenSys/2018DeveloperProgram/EthereumAttendanceTaking/contracts/SignupAndAttendance.sol",
  "compiler": {
    "name": "solc",
    "version": "0.4.24+commit.e67f0147.Emscripten.clang"
  },
  "schemaVersion": "2.0.1",
  "updatedAt": "2018-08-16T10:50:37.469Z"
}