{
  "contractName": "SignupAndAttendance",
  "abi": [
    {
      "constant": true,
      "inputs": [
        {
          "name": "",
          "type": "address"
        }
      ],
      "name": "balances",
      "outputs": [
        {
          "name": "",
          "type": "uint256"
        }
      ],
      "payable": false,
      "stateMutability": "view",
      "type": "function"
    },
    {
      "constant": true,
      "inputs": [
        {
          "name": "",
          "type": "address"
        }
      ],
      "name": "attendees",
      "outputs": [
        {
          "name": "name",
          "type": "bytes32"
        }
      ],
      "payable": false,
      "stateMutability": "view",
      "type": "function"
    },
    {
      "inputs": [],
      "payable": false,
      "stateMutability": "nonpayable",
      "type": "constructor"
    },
    {
      "constant": false,
      "inputs": [
        {
          "name": "_courseId",
          "type": "string"
        }
      ],
      "name": "Signup",
      "outputs": [],
      "payable": true,
      "stateMutability": "payable",
      "type": "function"
    },
    {
      "constant": true,
      "inputs": [
        {
          "name": "a",
          "type": "string"
        },
        {
          "name": "b",
          "type": "string"
        }
      ],
      "name": "compareStrings",
      "outputs": [
        {
          "name": "",
          "type": "bool"
        }
      ],
      "payable": false,
      "stateMutability": "view",
      "type": "function"
    }
  ],
  "bytecode": "0x608060405234801561001057600080fd5b506105af806100206000396000f300608060405260043610610062576000357c0100000000000000000000000000000000000000000000000000000000900463ffffffff16806327e235e314610067578063396dc854146100be5780636efc81f11461011d578063bed34bba14610179575b600080fd5b34801561007357600080fd5b506100a8600480360381019080803573ffffffffffffffffffffffffffffffffffffffff169060200190929190505050610240565b6040518082815260200191505060405180910390f35b3480156100ca57600080fd5b506100ff600480360381019080803573ffffffffffffffffffffffffffffffffffffffff169060200190929190505050610258565b60405180826000191660001916815260200191505060405180910390f35b610177600480360381019080803590602001908201803590602001908080601f0160208091040260200160405190810160405280939291908181526020018383808284378201915050505050509192919290505050610276565b005b34801561018557600080fd5b50610226600480360381019080803590602001908201803590602001908080601f0160208091040260200160405190810160405280939291908181526020018383808284378201915050505050509192919290803590602001908201803590602001908080601f0160208091040260200160405190810160405280939291908181526020018383808284378201915050505050509192919290505050610405565b604051808215151515815260200191505060405180910390f35b60006020528060005260406000206000915090505481565b60016020528060005260406000206000915090508060000154905081565b60006102b76040805190810160405280601381526020017f696e74726f2d746f2d626c6f636b636861696e0000000000000000000000000081525083610405565b1561031c576000341415156102cb57600080fd5b346000803373ffffffffffffffffffffffffffffffffffffffff1673ffffffffffffffffffffffffffffffffffffffff1681526020019081526020016000206000828254019250508190555061037f565b671bc16d674ec800003414151561033257600080fd5b346000803373ffffffffffffffffffffffffffffffffffffffff1673ffffffffffffffffffffffffffffffffffffffff168152602001908152602001600020600082825401925050819055505b600160003373ffffffffffffffffffffffffffffffffffffffff1673ffffffffffffffffffffffffffffffffffffffff1681526020019081526020016000209050806001018290806001815401808255809150509060018203906000526020600020016000909192909190915090805190602001906103ff9291906104de565b50505050565b6000816040518082805190602001908083835b60208310151561043d5780518252602082019150602081019050602083039250610418565b6001836020036101000a038019825116818451168082178552505050505050905001915050604051809103902060001916836040518082805190602001908083835b6020831015156104a4578051825260208201915060208101905060208303925061047f565b6001836020036101000a03801982511681845116808217855250505050505090500191505060405180910390206000191614905092915050565b828054600181600116156101000203166002900490600052602060002090601f016020900481019282601f1061051f57805160ff191683800117855561054d565b8280016001018555821561054d579182015b8281111561054c578251825591602001919060010190610531565b5b50905061055a919061055e565b5090565b61058091905b8082111561057c576000816000905550600101610564565b5090565b905600a165627a7a72305820fa0f8ec4747033232c32722412ca1af908c707725e4857291b113761718aefef0029",
  "source": "pragma solidity 0.4.24;\n\ncontract SignupAndAttendance\n{\n\tstruct Attendee\n\t{\n\t\t//bytes32 courseId;\n\t\tbytes32 name;\n\t\tstring[] signups; \n\t}\n\n\tmapping (address => uint) public balances;\n\tmapping (address => Attendee) public attendees;\n\n\tconstructor() public \n\t{\n\n\t}\n\n\tfunction Signup(string _courseId) payable public\n\t{\n\t\t//require(courseId >= 0 && courseId <= 2);\n\t\t//bytes32 memory temp = \"intro-to-blockchain\";\n\n\t\t//bytes32 test = stringToBytes32(_courseId);\n\t  \t\n\t  \tif(compareStrings(\"intro-to-blockchain\", _courseId))\n\t  \t{\n\t\t\trequire(msg.value == 0 ether);\n\t\t\tbalances[msg.sender] += msg.value;\n\t  \t}\n\t  \telse\n\t  \t{\n\t  \t\trequire(msg.value == 2 ether);\n\t\t\tbalances[msg.sender] += msg.value;\n\t  \t}\n\n\t  \tAttendee storage attendee = attendees[msg.sender];\n\t\tattendee.signups.push(_courseId);\n\n\t  //Return the total number of courses signed up for by the attendee.\n\t  //return attendees[msg.sender].signups.push(courseId) - 1;\n\t}\n\n\t// function EtherToWei (uint _ether) view public returns (uint)\n\t// {\n\t// \treturn _ether * 1000000000000000000;\n\t// }\n\n\t//****** Taken from https://ethereum.stackexchange.com/questions/30912/how-to-compare-strings-in-solidity\n\tfunction compareStrings (string a, string b) view public returns (bool)\n\t{\n       return keccak256(a) == keccak256(b);\n   \t}\n   \t//******\n\n\t// //****** Taken from https://ethereum.stackexchange.com/questions/23549/convert-string-to-bytes32-in-web3j\n\t// function stringToBytes32 (string _string) view public\n\t// {\n\t//   byte[] storage byteValue = string.getBytes();\n\t//   byte[] storage byteValueLen32 = new byte[32];\n\t//   System.arraycopy(byteValue, 0, byteValueLen32, 0, byteValue.length);\n\t//   return new Bytes32(byteValueLen32);\n\t// }\t\n\t// //******\n}",
  "sourcePath": "/home/fritzlim/Desktop/Projects/ConsenSys/2018DeveloperProgram/EthereumAttendanceTaking/contracts/SignupAndAttendance.sol",
  "compiler": {
    "name": "solc",
    "version": "0.4.24+commit.e67f0147.Emscripten.clang"
  },
  "schemaVersion": "2.0.1",
  "updatedAt": "2018-08-17T16:54:24.271Z"
}