{
  "contractName": "SignupAndAttendance",
  "abi": [
    {
      "constant": true,
      "inputs": [
        {
          "name": "",
          "type": "address"
        }
      ],
      "name": "balances",
      "outputs": [
        {
          "name": "",
          "type": "uint256"
        }
      ],
      "payable": false,
      "stateMutability": "view",
      "type": "function"
    },
    {
      "constant": true,
      "inputs": [
        {
          "name": "",
          "type": "address"
        }
      ],
      "name": "students",
      "outputs": [
        {
          "name": "name",
          "type": "bytes32"
        },
        {
          "name": "email",
          "type": "bytes32"
        }
      ],
      "payable": false,
      "stateMutability": "view",
      "type": "function"
    },
    {
      "constant": true,
      "inputs": [
        {
          "name": "",
          "type": "uint256"
        }
      ],
      "name": "studentAccounts",
      "outputs": [
        {
          "name": "",
          "type": "address"
        }
      ],
      "payable": false,
      "stateMutability": "view",
      "type": "function"
    },
    {
      "inputs": [],
      "payable": false,
      "stateMutability": "nonpayable",
      "type": "constructor"
    },
    {
      "anonymous": false,
      "inputs": [
        {
          "indexed": false,
          "name": "_name",
          "type": "bytes32"
        }
      ],
      "name": "StudentLoginSuccessful",
      "type": "event"
    },
    {
      "anonymous": false,
      "inputs": [
        {
          "indexed": false,
          "name": "_courseId",
          "type": "string"
        }
      ],
      "name": "CourseSignupSuccessful",
      "type": "event"
    },
    {
      "constant": false,
      "inputs": [
        {
          "name": "_address",
          "type": "address"
        },
        {
          "name": "_name",
          "type": "bytes32"
        },
        {
          "name": "_email",
          "type": "bytes32"
        }
      ],
      "name": "StudentLogin",
      "outputs": [],
      "payable": true,
      "stateMutability": "payable",
      "type": "function"
    },
    {
      "constant": false,
      "inputs": [
        {
          "name": "_courseId",
          "type": "string"
        }
      ],
      "name": "Signup",
      "outputs": [],
      "payable": true,
      "stateMutability": "payable",
      "type": "function"
    },
    {
      "constant": true,
      "inputs": [
        {
          "name": "_courseCompletedId",
          "type": "string"
        }
      ],
      "name": "AttendanceTaking",
      "outputs": [],
      "payable": false,
      "stateMutability": "view",
      "type": "function"
    },
    {
      "constant": true,
      "inputs": [
        {
          "name": "a",
          "type": "string"
        },
        {
          "name": "b",
          "type": "string"
        }
      ],
      "name": "compareStrings",
      "outputs": [
        {
          "name": "",
          "type": "bool"
        }
      ],
      "payable": false,
      "stateMutability": "view",
      "type": "function"
    }
  ],
  "bytecode": "0x608060405234801561001057600080fd5b50336000806101000a81548173ffffffffffffffffffffffffffffffffffffffff021916908373ffffffffffffffffffffffffffffffffffffffff160217905550610a8a806100606000396000f300608060405260043610610083576000357c0100000000000000000000000000000000000000000000000000000000900463ffffffff16806327e235e3146100885780636efc81f1146100df5780639d1ee9331461013b578063a6c807a91461018d578063afcc8a59146101fb578063bed34bba14610264578063cd4e00251461032b575b600080fd5b34801561009457600080fd5b506100c9600480360381019080803573ffffffffffffffffffffffffffffffffffffffff169060200190929190505050610398565b6040518082815260200191505060405180910390f35b610139600480360381019080803590602001908201803590602001908080601f01602080910402602001604051908101604052809392919081815260200183838082843782019150505050505091929192905050506103b0565b005b61018b600480360381019080803573ffffffffffffffffffffffffffffffffffffffff16906020019092919080356000191690602001909291908035600019169060200190929190505050610638565b005b34801561019957600080fd5b506101ce600480360381019080803573ffffffffffffffffffffffffffffffffffffffff16906020019092919050505061079b565b60405180836000191660001916815260200182600019166000191681526020019250505060405180910390f35b34801561020757600080fd5b50610262600480360381019080803590602001908201803590602001908080601f01602080910402602001604051908101604052809392919081815260200183838082843782019150505050505091929192905050506107bf565b005b34801561027057600080fd5b50610311600480360381019080803590602001908201803590602001908080601f0160208091040260200160405190810160405280939291908181526020018383808284378201915050505050509192919290803590602001908201803590602001908080601f01602080910402602001604051908101604052809392919081815260200183838082843782019150505050505091929192905050506108a2565b604051808215151515815260200191505060405180910390f35b34801561033757600080fd5b506103566004803603810190808035906020019092919050505061097b565b604051808273ffffffffffffffffffffffffffffffffffffffff1673ffffffffffffffffffffffffffffffffffffffff16815260200191505060405180910390f35b60016020528060005260406000206000915090505481565b60008060009054906101000a900473ffffffffffffffffffffffffffffffffffffffff1673ffffffffffffffffffffffffffffffffffffffff163373ffffffffffffffffffffffffffffffffffffffff1614151561040d57600080fd5b61044c6040805190810160405280601381526020017f696e74726f2d746f2d626c6f636b636861696e00000000000000000000000000815250836108a2565b156104b25760003414151561046057600080fd5b34600160003373ffffffffffffffffffffffffffffffffffffffff1673ffffffffffffffffffffffffffffffffffffffff16815260200190815260200160002060008282540192505081905550610516565b671bc16d674ec80000341415156104c857600080fd5b34600160003373ffffffffffffffffffffffffffffffffffffffff1673ffffffffffffffffffffffffffffffffffffffff168152602001908152602001600020600082825401925050819055505b600260003373ffffffffffffffffffffffffffffffffffffffff1673ffffffffffffffffffffffffffffffffffffffff1681526020019081526020016000209050806002018290806001815401808255809150509060018203906000526020600020016000909192909190915090805190602001906105969291906109b9565b50507f53bb1968bb82306da40c41f0bf0880f40c5a2210a29bfaa6cfc3c72fbf7ca23a826040518080602001828103825283818151815260200191508051906020019080838360005b838110156105fa5780820151818401526020810190506105df565b50505050905090810190601f1680156106275780820380516001836020036101000a031916815260200191505b509250505060405180910390a15050565b60008060009054906101000a900473ffffffffffffffffffffffffffffffffffffffff1673ffffffffffffffffffffffffffffffffffffffff163373ffffffffffffffffffffffffffffffffffffffff1614151561069557600080fd5b600260008573ffffffffffffffffffffffffffffffffffffffff1673ffffffffffffffffffffffffffffffffffffffff1681526020019081526020016000209050828160000181600019169055508181600101816000191690555060038490806001815401808255809150509060018203906000526020600020016000909192909190916101000a81548173ffffffffffffffffffffffffffffffffffffffff021916908373ffffffffffffffffffffffffffffffffffffffff160217905550507fe7e279bc9b9399ddc85b5669390cd791deb640466dbdda2b228af74bdff1f63f8360405180826000191660001916815260200191505060405180910390a150505050565b60026020528060005260406000206000915090508060000154908060010154905082565b60008060009054906101000a900473ffffffffffffffffffffffffffffffffffffffff1673ffffffffffffffffffffffffffffffffffffffff163373ffffffffffffffffffffffffffffffffffffffff1614151561081c57600080fd5b600260003373ffffffffffffffffffffffffffffffffffffffff1673ffffffffffffffffffffffffffffffffffffffff16815260200190815260200160002090508060030182908060018154018082558091505090600182039060005260206000200160009091929091909150908051906020019061089c9291906109b9565b50505050565b6000816040518082805190602001908083835b6020831015156108da57805182526020820191506020810190506020830392506108b5565b6001836020036101000a038019825116818451168082178552505050505050905001915050604051809103902060001916836040518082805190602001908083835b602083101515610941578051825260208201915060208101905060208303925061091c565b6001836020036101000a03801982511681845116808217855250505050505090500191505060405180910390206000191614905092915050565b60038181548110151561098a57fe5b906000526020600020016000915054906101000a900473ffffffffffffffffffffffffffffffffffffffff1681565b828054600181600116156101000203166002900490600052602060002090601f016020900481019282601f106109fa57805160ff1916838001178555610a28565b82800160010185558215610a28579182015b82811115610a27578251825591602001919060010190610a0c565b5b509050610a359190610a39565b5090565b610a5b91905b80821115610a57576000816000905550600101610a3f565b5090565b905600a165627a7a72305820c78c9fadee5b72308d7ec8034912e45876feedabf98a3a1f30b07071ec4810910029",
  "source": "pragma solidity 0.4.24;\n\ncontract Owned\n{\n    address owner;\n    \n    constructor() public {\n        owner = msg.sender;\n    }\n    \n   modifier onlyOwner {\n       require(msg.sender == owner);\n       _;\n   }\n}\n\ncontract SignupAndAttendance is Owned\n{\n\tstruct Student\n\t{\n\t\t//bytes32 courseId;\n\t\tbytes32 name;\n\t\tbytes32 email;\n\t\tstring[] signups;\n\t\tstring[] coursesCompleted;\n\t}\n\n\tmapping (address => uint) public balances;\n\tmapping (address => Student) public students;\n\n\taddress[] public studentAccounts;\n\n\tevent StudentLoginSuccessful(bytes32 _name);\n\tevent CourseSignupSuccessful(string _courseId);\n\n\tconstructor() public \n\t{\n\n\t}\n\n\tfunction StudentLogin(address _address, bytes32 _name, bytes32 _email) onlyOwner payable public\n\t{\n\t\tvar student = students[_address];\n\n\t\tstudent.name = _name;\n\t\tstudent.email = _email;\n\n\t\tstudentAccounts.push(_address);\n\t\temit StudentLoginSuccessful(_name);\n\t}\n\n\tfunction Signup(string _courseId) onlyOwner payable public\n\t{\n\t\t//require(courseId >= 0 && courseId <= 2);\n\t\t//bytes32 memory temp = \"intro-to-blockchain\";\n\n\t\t//bytes32 test = stringToBytes32(_courseId);\n\t  \t\n\t  \tif(compareStrings(\"intro-to-blockchain\", _courseId))\n\t  \t{\n\t\t\trequire(msg.value == 0 ether);\n\t\t\tbalances[msg.sender] += msg.value;\n\t  \t}\n\t  \telse\n\t  \t{\n\t  \t\trequire(msg.value == 2 ether);\n\t\t\tbalances[msg.sender] += msg.value;\n\t  \t}\n\n\t  \tStudent storage student = students[msg.sender];\n\t\tstudent.signups.push(_courseId);\n\n\t\temit CourseSignupSuccessful(_courseId);\n\n\t  //Return the total number of courses signed up for by the attendee.\n\t  //return attendees[msg.sender].signups.push(courseId) - 1;\n\t}\n\n\tfunction AttendanceTaking(string _courseCompletedId) onlyOwner view public\n\t{\n\t\tStudent storage student = students[msg.sender];\n\t\tstudent.coursesCompleted.push(_courseCompletedId);\n\t}\n\n\t// function EmitCourseSignupSucessful(_courseId)\n\t// {\n\t// \temit CourseSignupSucessful(_courseId);\n\t// }\n\n\t// function EtherToWei (uint _ether) view public returns (uint)\n\t// {\n\t// \treturn _ether * 1000000000000000000;\n\t// }\n\n\t//****** Taken from https://ethereum.stackexchange.com/questions/30912/how-to-compare-strings-in-solidity\n\tfunction compareStrings (string a, string b) view public returns (bool)\n\t{\n       return keccak256(a) == keccak256(b);\n   \t}\n   \t//******\n\n\t// //****** Taken from https://ethereum.stackexchange.com/questions/23549/convert-string-to-bytes32-in-web3j\n\t// function stringToBytes32 (string _string) view public\n\t// {\n\t//   byte[] storage byteValue = string.getBytes();\n\t//   byte[] storage byteValueLen32 = new byte[32];\n\t//   System.arraycopy(byteValue, 0, byteValueLen32, 0, byteValue.length);\n\t//   return new Bytes32(byteValueLen32);\n\t// }\t\n\t// //******\n}",
  "sourcePath": "/home/fritzlim/Desktop/Projects/ConsenSys/2018DeveloperProgram/EthereumAttendanceTaking/contracts/SignupAndAttendance.sol",
  "compiler": {
    "name": "solc",
    "version": "0.4.24+commit.e67f0147.Emscripten.clang"
  },
  "schemaVersion": "2.0.1",
  "updatedAt": "2018-08-24T06:45:07.102Z"
}