{
  "contractName": "SignupAndAttendance",
  "abi": [
    {
      "inputs": [],
      "payable": false,
      "stateMutability": "nonpayable",
      "type": "constructor"
    },
    {
      "payable": false,
      "stateMutability": "nonpayable",
      "type": "fallback"
    },
    {
      "anonymous": false,
      "inputs": [
        {
          "indexed": false,
          "name": "loginRecord",
          "type": "string"
        }
      ],
      "name": "StudentLoginEvent",
      "type": "event"
    },
    {
      "anonymous": false,
      "inputs": [
        {
          "indexed": false,
          "name": "courseData",
          "type": "string"
        }
      ],
      "name": "SignupEvent",
      "type": "event"
    },
    {
      "anonymous": false,
      "inputs": [
        {
          "indexed": false,
          "name": "courseData",
          "type": "string"
        }
      ],
      "name": "AttendanceTakingEvent",
      "type": "event"
    },
    {
      "anonymous": false,
      "inputs": [
        {
          "indexed": false,
          "name": "stopped",
          "type": "bool"
        }
      ],
      "name": "EmergencyStopEvent",
      "type": "event"
    },
    {
      "anonymous": false,
      "inputs": [
        {
          "indexed": false,
          "name": "_sender",
          "type": "address"
        }
      ],
      "name": "FallbackEvent",
      "type": "event"
    },
    {
      "constant": false,
      "inputs": [],
      "name": "ToggleEmergencyStopStatus",
      "outputs": [
        {
          "name": "stoppedStatus",
          "type": "bool"
        }
      ],
      "payable": false,
      "stateMutability": "nonpayable",
      "type": "function"
    },
    {
      "constant": true,
      "inputs": [],
      "name": "checkActive",
      "outputs": [
        {
          "name": "stoppedstatus",
          "type": "bool"
        }
      ],
      "payable": false,
      "stateMutability": "view",
      "type": "function"
    },
    {
      "constant": false,
      "inputs": [
        {
          "name": "_name",
          "type": "bytes32"
        },
        {
          "name": "_email",
          "type": "bytes32"
        },
        {
          "name": "_loginRecord",
          "type": "string"
        }
      ],
      "name": "StudentLogin",
      "outputs": [
        {
          "name": "",
          "type": "string"
        }
      ],
      "payable": false,
      "stateMutability": "nonpayable",
      "type": "function"
    },
    {
      "constant": true,
      "inputs": [],
      "name": "GetStudentAccounts",
      "outputs": [
        {
          "name": "",
          "type": "address[]"
        }
      ],
      "payable": false,
      "stateMutability": "view",
      "type": "function"
    },
    {
      "constant": false,
      "inputs": [
        {
          "name": "_courseId",
          "type": "string"
        },
        {
          "name": "_courseData",
          "type": "string"
        }
      ],
      "name": "Signup",
      "outputs": [
        {
          "name": "",
          "type": "string"
        }
      ],
      "payable": true,
      "stateMutability": "payable",
      "type": "function"
    },
    {
      "constant": false,
      "inputs": [
        {
          "name": "_courseData",
          "type": "string"
        }
      ],
      "name": "AttendanceTaking",
      "outputs": [
        {
          "name": "",
          "type": "string"
        }
      ],
      "payable": false,
      "stateMutability": "nonpayable",
      "type": "function"
    }
  ],
  "bytecode": "0x60806040526000600460006101000a81548160ff02191690831515021790555034801561002b57600080fd5b50336000806101000a81548173ffffffffffffffffffffffffffffffffffffffff021916908373ffffffffffffffffffffffffffffffffffffffff160217905550610fdc8061007b6000396000f300608060405260043610610078576000357c0100000000000000000000000000000000000000000000000000000000900463ffffffff168063396e5fee146100ea5780638c30c1c014610119578063950936a91461014857806396d52a8314610246578063afcc8a5914610361578063fb35623e14610443575b34801561008457600080fd5b507f6125c2f3d3934c922906127a0cfeab5dfa2450fd2366c3c398fb7a0e16d1997c33604051808273ffffffffffffffffffffffffffffffffffffffff1673ffffffffffffffffffffffffffffffffffffffff16815260200191505060405180910390a1005b3480156100f657600080fd5b506100ff6104af565b604051808215151515815260200191505060405180910390f35b34801561012557600080fd5b5061012e6104c6565b604051808215151515815260200191505060405180910390f35b34801561015457600080fd5b506101cb60048036038101908080356000191690602001909291908035600019169060200190929190803590602001908201803590602001908080601f0160208091040260200160405190810160405280939291908181526020018383808284378201915050505050509192919290505050610551565b6040518080602001828103825283818151815260200191508051906020019080838360005b8381101561020b5780820151818401526020810190506101f0565b50505050905090810190601f1680156102385780820380516001836020036101000a031916815260200191505b509250505060405180910390f35b6102e6600480360381019080803590602001908201803590602001908080601f0160208091040260200160405190810160405280939291908181526020018383808284378201915050505050509192919290803590602001908201803590602001908080601f01602080910402602001604051908101604052809392919081815260200183838082843782019150505050505091929192905050506107dc565b6040518080602001828103825283818151815260200191508051906020019080838360005b8381101561032657808201518184015260208101905061030b565b50505050905090810190601f1680156103535780820380516001836020036101000a031916815260200191505b509250505060405180910390f35b34801561036d57600080fd5b506103c8600480360381019080803590602001908201803590602001908080601f0160208091040260200160405190810160405280939291908181526020018383808284378201915050505050509192919290505050610b45565b6040518080602001828103825283818151815260200191508051906020019080838360005b838110156104085780820151818401526020810190506103ed565b50505050905090810190601f1680156104355780820380516001836020036101000a031916815260200191505b509250505060405180910390f35b34801561044f57600080fd5b50610458610da4565b6040518080602001828103825283818151815260200191508051906020019060200280838360005b8381101561049b578082015181840152602081019050610480565b505050509050019250505060405180910390f35b6000600460009054906101000a900460ff16905090565b6000600460009054906101000a900460ff1615600460006101000a81548160ff0219169083151502179055507f3443ae3b5054599f9307108d4f0a41e64d9b8920cfbca3e35c9279671510c410600460009054906101000a900460ff16604051808215151515815260200191505060405180910390a1600460009054906101000a900460ff16905090565b6060600080600460009054906101000a900460ff1615151561057257600080fd5b339150600260008373ffffffffffffffffffffffffffffffffffffffff1673ffffffffffffffffffffffffffffffffffffffff168152602001908152602001600020905085816000018160001916905550848160010181600019169055508060020184908060018154018082558091505090600182039060005260206000200160009091929091909150908051906020019061060f929190610f0b565b505060038290806001815401808255809150509060018203906000526020600020016000909192909190916101000a81548173ffffffffffffffffffffffffffffffffffffffff021916908373ffffffffffffffffffffffffffffffffffffffff160217905550507f61d98b8d2f4bad25be3f9d10aec775f7104a20cd822164a1a3bda45196d354e4846040518080602001828103825283818151815260200191508051906020019080838360005b838110156106d95780820151818401526020810190506106be565b50505050905090810190601f1680156107065780820380516001836020036101000a031916815260200191505b509250505060405180910390a180600201600182600201805490500381548110151561072e57fe5b906000526020600020018054600181600116156101000203166002900480601f0160208091040260200160405190810160405280929190818152602001828054600181600116156101000203166002900480156107cc5780601f106107a1576101008083540402835291602001916107cc565b820191906000526020600020905b8154815290600101906020018083116107af57829003601f168201915b5050505050925050509392505050565b606060008060009054906101000a900473ffffffffffffffffffffffffffffffffffffffff1673ffffffffffffffffffffffffffffffffffffffff163373ffffffffffffffffffffffffffffffffffffffff1614151561083b57600080fd5b600460009054906101000a900460ff1615151561085757600080fd5b6108966040805190810160405280601381526020017f696e74726f2d746f2d626c6f636b636861696e0000000000000000000000000081525085610e32565b156108fc576000341415156108aa57600080fd5b34600160003373ffffffffffffffffffffffffffffffffffffffff1673ffffffffffffffffffffffffffffffffffffffff16815260200190815260200160002060008282540192505081905550610960565b671bc16d674ec800003414151561091257600080fd5b34600160003373ffffffffffffffffffffffffffffffffffffffff1673ffffffffffffffffffffffffffffffffffffffff168152602001908152602001600020600082825401925050819055505b600260003373ffffffffffffffffffffffffffffffffffffffff1673ffffffffffffffffffffffffffffffffffffffff1681526020019081526020016000209050806003018390806001815401808255809150509060018203906000526020600020016000909192909190915090805190602001906109e0929190610f0b565b50507f119232a901dc5476d82dab68b92e3f0fa5fca7a2fe5cd73edf17e625691e7240836040518080602001828103825283818151815260200191508051906020019080838360005b83811015610a44578082015181840152602081019050610a29565b50505050905090810190601f168015610a715780820380516001836020036101000a031916815260200191505b509250505060405180910390a1806003016001826003018054905003815481101515610a9957fe5b906000526020600020018054600181600116156101000203166002900480601f016020809104026020016040519081016040528092919081815260200182805460018160011615610100020316600290048015610b375780601f10610b0c57610100808354040283529160200191610b37565b820191906000526020600020905b815481529060010190602001808311610b1a57829003601f168201915b505050505091505092915050565b606060008060009054906101000a900473ffffffffffffffffffffffffffffffffffffffff1673ffffffffffffffffffffffffffffffffffffffff163373ffffffffffffffffffffffffffffffffffffffff16141515610ba457600080fd5b600460009054906101000a900460ff16151515610bc057600080fd5b600260003373ffffffffffffffffffffffffffffffffffffffff1673ffffffffffffffffffffffffffffffffffffffff168152602001908152602001600020905080600401839080600181540180825580915050906001820390600052602060002001600090919290919091509080519060200190610c40929190610f0b565b50507fb37f89d5bdf496c414ad462968f4bf5c63b6ef231b491c8d619d843a463ee5f9836040518080602001828103825283818151815260200191508051906020019080838360005b83811015610ca4578082015181840152602081019050610c89565b50505050905090810190601f168015610cd15780820380516001836020036101000a031916815260200191505b509250505060405180910390a1806004016001826004018054905003815481101515610cf957fe5b906000526020600020018054600181600116156101000203166002900480601f016020809104026020016040519081016040528092919081815260200182805460018160011615610100020316600290048015610d975780601f10610d6c57610100808354040283529160200191610d97565b820191906000526020600020905b815481529060010190602001808311610d7a57829003601f168201915b5050505050915050919050565b60606003805480602002602001604051908101604052809291908181526020018280548015610e2857602002820191906000526020600020905b8160009054906101000a900473ffffffffffffffffffffffffffffffffffffffff1673ffffffffffffffffffffffffffffffffffffffff1681526020019060010190808311610dde575b5050505050905090565b6000816040518082805190602001908083835b602083101515610e6a5780518252602082019150602081019050602083039250610e45565b6001836020036101000a038019825116818451168082178552505050505050905001915050604051809103902060001916836040518082805190602001908083835b602083101515610ed15780518252602082019150602081019050602083039250610eac565b6001836020036101000a03801982511681845116808217855250505050505090500191505060405180910390206000191614905092915050565b828054600181600116156101000203166002900490600052602060002090601f016020900481019282601f10610f4c57805160ff1916838001178555610f7a565b82800160010185558215610f7a579182015b82811115610f79578251825591602001919060010190610f5e565b5b509050610f879190610f8b565b5090565b610fad91905b80821115610fa9576000816000905550600101610f91565b5090565b905600a165627a7a7230582071c81f07f5c9334d5e8292bdf16859def836b263300784e254dabed585c5a5820029",
  "source": "pragma solidity 0.4.24; //Protection in place: Solidity Pragma locked\n\n// ****** Notes ******/\n// Protections in place:\n// \t- Solidity Pragma locked\n// \t- Circuit Breaker - Emergency stop by Contract Creator\n//\n// Protections not implemented:\n// \t- Rentrancy protection\n// \t- Overflow protection\n// \t- Underflow protection\n// \t- Speed bumps\n//\n//\n// Coding practices in place:\n// \t- Explicitly marking visibility in functions and state variables\n//\t- Differentiating functions and events\n//\t- Keeping fallback functions simple\n// ********************\n\ncontract Owned\n{\n    address private _owner;\n    \n    constructor() public\n    {\n        _owner = msg.sender;\n    }\n    \n   modifier onlyOwner\n   {\n       require(msg.sender == _owner);\n       _;\n   }\n}\n\ncontract SignupAndAttendance is Owned\n{\n\tstruct Student\n\t{\n\t\tbytes32 name;\n\t\tbytes32 email;\n\t\tstring[] loginRecord;\n\t\tstring[] signupRecord;\n\t\tstring[] coursesCompletedRecord;\n\t}\n\n\tmapping (address => uint) private balances;\n\tmapping (address => Student) private students;\n\n\taddress[] private studentAccounts;\n\n\tevent StudentLoginEvent(string loginRecord);\n\tevent SignupEvent(string courseData);\n\tevent AttendanceTakingEvent(string courseData);\n\n\tevent EmergencyStopEvent(bool stopped); //Protection in place: Event that's fired upon activation of circuit breaker\n\n\tevent FallbackEvent(address _sender); //For the fallback function\n\n\t//****** Protections in place: Avoiding common attacks ******\n\t\tbool private _stopped = false; //For Circuit Breaker\n\n\t\tfunction ToggleEmergencyStopStatus() public returns(bool stoppedStatus)\n\t\t{\n\t\t    _stopped = !_stopped; // Toggle the value of stopped\n\t\t    emit EmergencyStopEvent(_stopped);\n\n\t\t    return _stopped;\n\t\t}\n\n\t\t// Emergency stop\n\t\tmodifier stopInEmergency\n\t\t{\n\t\t\trequire(!_stopped);\n\t\t\t_;\n\t\t}\n\n\t\t// Normal operation and emergency\n\t\tmodifier onlyInEmergency\n\t\t{\n\t\t\tif (_stopped)\n\t\t\t_;\n\t\t}\n\n\t\t// Check if the status of the contract is active\n\t\tfunction checkActive() public view returns(bool stoppedstatus)\n\t\t{\n\t\t\treturn _stopped;\n\t\t}\n\t//***********************************************************\n\n\tconstructor() public \n\t{\n\n\t}\n\n\tfunction StudentLogin(bytes32 _name, bytes32 _email, string _loginRecord) stopInEmergency public returns (string)\n\t{\n\t\tvar _address = msg.sender;\n\t\tStudent storage student = students[_address];\n\n\t\tstudent.name = _name;\n\t\tstudent.email = _email;\n\t\tstudent.loginRecord.push(_loginRecord);\n\n\t\tstudentAccounts.push(_address);\n\n\t\temit StudentLoginEvent(_loginRecord);\n\n\t\treturn student.loginRecord[student.loginRecord.length - 1];\n\t}\n\n\tfunction GetStudentAccounts() public view returns (address[])\n\t{\n\t\treturn studentAccounts;\n\t}\n\n\tfunction Signup(string _courseId, string _courseData) onlyOwner stopInEmergency payable public returns (string)\n\t{\n\t\t//require(courseId >= 0 && courseId <= 2);\n\t\t//bytes32 memory temp = \"intro-to-blockchain\";\n\n\t\t//bytes32 test = stringToBytes32(_courseId);\n\t  \t\n\t  \tif(CompareStrings(\"intro-to-blockchain\", _courseId))\n\t  \t{\n\t\t\trequire(msg.value == 0 ether);\n\t\t\tbalances[msg.sender] += msg.value;\n\t  \t}\n\t  \telse\n\t  \t{\n\t  \t\trequire(msg.value == 2 ether);\n\t\t\tbalances[msg.sender] += msg.value;\n\t  \t}\n\n\t  \tStudent storage student = students[msg.sender];\n\t\tstudent.signupRecord.push(_courseData);\n\n\t\temit SignupEvent(_courseData);\n\n\t\treturn student.signupRecord[student.signupRecord.length - 1];\n\n\t  //Return the total number of courses signed up for by the attendee.\n\t  //return attendees[msg.sender].signups.push(courseId) - 1;\n\t}\n\n\tfunction AttendanceTaking(string _courseData) onlyOwner stopInEmergency public returns (string)\n\t{\n\t\tStudent storage student = students[msg.sender];\n\t\tstudent.coursesCompletedRecord.push(_courseData);\n\n\t\temit AttendanceTakingEvent(_courseData);\n\n\t\treturn student.coursesCompletedRecord[student.coursesCompletedRecord.length - 1];\n\t}\n\n\t// function EmitCourseSignupSucessful(_courseId)\n\t// {\n\t// \temit CourseSignupSucessful(_courseId);\n\t// }\n\n\t// function EtherToWei (uint _ether) view public returns (uint)\n\t// {\n\t// \treturn _ether * 1000000000000000000;\n\t// }\n\n\t//****** Taken from https://ethereum.stackexchange.com/questions/30912/how-to-compare-strings-in-solidity\n\tfunction CompareStrings (string a, string b) view private returns (bool)\n\t{\n       return keccak256(a) == keccak256(b);\n   \t}\n   \t//******\n\n   \t//****** Fallback function\n\tfunction () public\n\t{\n\t\temit FallbackEvent(msg.sender);\n    }\n    //******\n\n\t// //****** Taken from https://ethereum.stackexchange.com/questions/23549/convert-string-to-bytes32-in-web3j\n\t// function stringToBytes32 (string _string) view public\n\t// {\n\t//   byte[] storage byteValue = string.getBytes();\n\t//   byte[] storage byteValueLen32 = new byte[32];\n\t//   System.arraycopy(byteValue, 0, byteValueLen32, 0, byteValue.length);\n\t//   return new Bytes32(byteValueLen32);\n\t// }\t\n\t// //******\n}",
  "sourcePath": "/home/fritzlim/Desktop/Projects/ConsenSys/2018DeveloperProgram/EthereumAttendanceTaking/contracts/SignupAndAttendance.sol",
  "compiler": {
    "name": "solc",
    "version": "0.4.24+commit.e67f0147.Emscripten.clang"
  },
  "schemaVersion": "2.0.1",
  "updatedAt": "2018-08-28T17:33:47.683Z"
}