{
  "contractName": "SignupAndAttendance",
  "abi": [
    {
      "constant": true,
      "inputs": [
        {
          "name": "",
          "type": "address"
        }
      ],
      "name": "balances",
      "outputs": [
        {
          "name": "",
          "type": "uint256"
        }
      ],
      "payable": false,
      "stateMutability": "view",
      "type": "function"
    },
    {
      "constant": true,
      "inputs": [
        {
          "name": "",
          "type": "address"
        }
      ],
      "name": "attendees",
      "outputs": [
        {
          "name": "name",
          "type": "bytes32"
        }
      ],
      "payable": false,
      "stateMutability": "view",
      "type": "function"
    },
    {
      "inputs": [],
      "payable": false,
      "stateMutability": "nonpayable",
      "type": "constructor"
    },
    {
      "anonymous": false,
      "inputs": [
        {
          "indexed": false,
          "name": "_courseId",
          "type": "string"
        }
      ],
      "name": "CourseSignupSuccessful",
      "type": "event"
    },
    {
      "constant": false,
      "inputs": [
        {
          "name": "_courseId",
          "type": "string"
        }
      ],
      "name": "Signup",
      "outputs": [],
      "payable": true,
      "stateMutability": "payable",
      "type": "function"
    },
    {
      "constant": true,
      "inputs": [
        {
          "name": "_courseCompletedId",
          "type": "string"
        }
      ],
      "name": "AttendanceTaking",
      "outputs": [],
      "payable": false,
      "stateMutability": "view",
      "type": "function"
    },
    {
      "constant": true,
      "inputs": [
        {
          "name": "a",
          "type": "string"
        },
        {
          "name": "b",
          "type": "string"
        }
      ],
      "name": "compareStrings",
      "outputs": [
        {
          "name": "",
          "type": "bool"
        }
      ],
      "payable": false,
      "stateMutability": "view",
      "type": "function"
    }
  ],
  "bytecode": "0x608060405234801561001057600080fd5b50610747806100206000396000f30060806040526004361061006d576000357c0100000000000000000000000000000000000000000000000000000000900463ffffffff16806327e235e314610072578063396dc854146100c95780636efc81f114610128578063afcc8a5914610184578063bed34bba146101ed575b600080fd5b34801561007e57600080fd5b506100b3600480360381019080803573ffffffffffffffffffffffffffffffffffffffff1690602001909291905050506102b4565b6040518082815260200191505060405180910390f35b3480156100d557600080fd5b5061010a600480360381019080803573ffffffffffffffffffffffffffffffffffffffff1690602001909291905050506102cc565b60405180826000191660001916815260200191505060405180910390f35b610182600480360381019080803590602001908201803590602001908080601f01602080910402602001604051908101604052809392919081815260200183838082843782019150505050505091929192905050506102ea565b005b34801561019057600080fd5b506101eb600480360381019080803590602001908201803590602001908080601f0160208091040260200160405190810160405280939291908181526020018383808284378201915050505050509192919290505050610515565b005b3480156101f957600080fd5b5061029a600480360381019080803590602001908201803590602001908080601f0160208091040260200160405190810160405280939291908181526020018383808284378201915050505050509192919290803590602001908201803590602001908080601f016020809104026020016040519081016040528093929190818152602001838380828437820191505050505050919291929050505061059d565b604051808215151515815260200191505060405180910390f35b60006020528060005260406000206000915090505481565b60016020528060005260406000206000915090508060000154905081565b600061032b6040805190810160405280601381526020017f696e74726f2d746f2d626c6f636b636861696e000000000000000000000000008152508361059d565b156103905760003414151561033f57600080fd5b346000803373ffffffffffffffffffffffffffffffffffffffff1673ffffffffffffffffffffffffffffffffffffffff168152602001908152602001600020600082825401925050819055506103f3565b671bc16d674ec80000341415156103a657600080fd5b346000803373ffffffffffffffffffffffffffffffffffffffff1673ffffffffffffffffffffffffffffffffffffffff168152602001908152602001600020600082825401925050819055505b600160003373ffffffffffffffffffffffffffffffffffffffff1673ffffffffffffffffffffffffffffffffffffffff168152602001908152602001600020905080600101829080600181540180825580915050906001820390600052602060002001600090919290919091509080519060200190610473929190610676565b50507f53bb1968bb82306da40c41f0bf0880f40c5a2210a29bfaa6cfc3c72fbf7ca23a826040518080602001828103825283818151815260200191508051906020019080838360005b838110156104d75780820151818401526020810190506104bc565b50505050905090810190601f1680156105045780820380516001836020036101000a031916815260200191505b509250505060405180910390a15050565b6000600160003373ffffffffffffffffffffffffffffffffffffffff1673ffffffffffffffffffffffffffffffffffffffff168152602001908152602001600020905080600201829080600181540180825580915050906001820390600052602060002001600090919290919091509080519060200190610597929190610676565b50505050565b6000816040518082805190602001908083835b6020831015156105d557805182526020820191506020810190506020830392506105b0565b6001836020036101000a038019825116818451168082178552505050505050905001915050604051809103902060001916836040518082805190602001908083835b60208310151561063c5780518252602082019150602081019050602083039250610617565b6001836020036101000a03801982511681845116808217855250505050505090500191505060405180910390206000191614905092915050565b828054600181600116156101000203166002900490600052602060002090601f016020900481019282601f106106b757805160ff19168380011785556106e5565b828001600101855582156106e5579182015b828111156106e45782518255916020019190600101906106c9565b5b5090506106f291906106f6565b5090565b61071891905b808211156107145760008160009055506001016106fc565b5090565b905600a165627a7a72305820a9593bf1f963f065d70f31c825b4a1edd161bdf62b5790552340190e015e16af0029",
  "source": "pragma solidity 0.4.24;\n\ncontract SignupAndAttendance\n{\n\tstruct Attendee\n\t{\n\t\t//bytes32 courseId;\n\t\tbytes32 name;\n\t\tstring[] signups;\n\t\tstring[] coursesCompleted;\n\t}\n\n\tmapping (address => uint) public balances;\n\tmapping (address => Attendee) public attendees;\n\n\tevent CourseSignupSuccessful(string _courseId);\n\n\tconstructor() public \n\t{\n\n\t}\n\n\tfunction Signup(string _courseId) payable public\n\t{\n\t\t//require(courseId >= 0 && courseId <= 2);\n\t\t//bytes32 memory temp = \"intro-to-blockchain\";\n\n\t\t//bytes32 test = stringToBytes32(_courseId);\n\t  \t\n\t  \tif(compareStrings(\"intro-to-blockchain\", _courseId))\n\t  \t{\n\t\t\trequire(msg.value == 0 ether);\n\t\t\tbalances[msg.sender] += msg.value;\n\t  \t}\n\t  \telse\n\t  \t{\n\t  \t\trequire(msg.value == 2 ether);\n\t\t\tbalances[msg.sender] += msg.value;\n\t  \t}\n\n\t  \tAttendee storage attendee = attendees[msg.sender];\n\t\tattendee.signups.push(_courseId);\n\n\t\temit CourseSignupSuccessful(_courseId);\n\n\t  //Return the total number of courses signed up for by the attendee.\n\t  //return attendees[msg.sender].signups.push(courseId) - 1;\n\t}\n\n\tfunction AttendanceTaking(string _courseCompletedId) view public\n\t{\n\t\tAttendee storage attendee = attendees[msg.sender];\n\t\tattendee.coursesCompleted.push(_courseCompletedId);\n\t}\n\n\t// function EmitCourseSignupSucessful(_courseId)\n\t// {\n\t// \temit CourseSignupSucessful(_courseId);\n\t// }\n\n\t// function EtherToWei (uint _ether) view public returns (uint)\n\t// {\n\t// \treturn _ether * 1000000000000000000;\n\t// }\n\n\t//****** Taken from https://ethereum.stackexchange.com/questions/30912/how-to-compare-strings-in-solidity\n\tfunction compareStrings (string a, string b) view public returns (bool)\n\t{\n       return keccak256(a) == keccak256(b);\n   \t}\n   \t//******\n\n\t// //****** Taken from https://ethereum.stackexchange.com/questions/23549/convert-string-to-bytes32-in-web3j\n\t// function stringToBytes32 (string _string) view public\n\t// {\n\t//   byte[] storage byteValue = string.getBytes();\n\t//   byte[] storage byteValueLen32 = new byte[32];\n\t//   System.arraycopy(byteValue, 0, byteValueLen32, 0, byteValue.length);\n\t//   return new Bytes32(byteValueLen32);\n\t// }\t\n\t// //******\n}",
  "sourcePath": "/home/fritzlim/Desktop/Projects/ConsenSys/2018DeveloperProgram/EthereumAttendanceTaking/contracts/SignupAndAttendance.sol",
  "compiler": {
    "name": "solc",
    "version": "0.4.24+commit.e67f0147.Emscripten.clang"
  },
  "schemaVersion": "2.0.1",
  "updatedAt": "2018-08-22T19:18:32.409Z"
}