{
  "contractName": "SignupAndAttendance",
  "abi": [
    {
      "constant": true,
      "inputs": [
        {
          "name": "",
          "type": "address"
        }
      ],
      "name": "balances",
      "outputs": [
        {
          "name": "",
          "type": "uint256"
        }
      ],
      "payable": false,
      "stateMutability": "view",
      "type": "function"
    },
    {
      "constant": true,
      "inputs": [
        {
          "name": "",
          "type": "address"
        }
      ],
      "name": "students",
      "outputs": [
        {
          "name": "name",
          "type": "bytes32"
        },
        {
          "name": "email",
          "type": "bytes32"
        },
        {
          "name": "loginDate",
          "type": "string"
        }
      ],
      "payable": false,
      "stateMutability": "view",
      "type": "function"
    },
    {
      "constant": true,
      "inputs": [
        {
          "name": "",
          "type": "uint256"
        }
      ],
      "name": "studentAccounts",
      "outputs": [
        {
          "name": "",
          "type": "address"
        }
      ],
      "payable": false,
      "stateMutability": "view",
      "type": "function"
    },
    {
      "inputs": [],
      "payable": false,
      "stateMutability": "nonpayable",
      "type": "constructor"
    },
    {
      "anonymous": false,
      "inputs": [
        {
          "indexed": false,
          "name": "_name",
          "type": "bytes32"
        }
      ],
      "name": "StudentLoginEvent",
      "type": "event"
    },
    {
      "anonymous": false,
      "inputs": [
        {
          "indexed": false,
          "name": "_courseId",
          "type": "string"
        }
      ],
      "name": "CourseSignupEvent",
      "type": "event"
    },
    {
      "constant": false,
      "inputs": [
        {
          "name": "_name",
          "type": "bytes32"
        },
        {
          "name": "_email",
          "type": "bytes32"
        },
        {
          "name": "_date",
          "type": "string"
        }
      ],
      "name": "StudentLogin",
      "outputs": [],
      "payable": false,
      "stateMutability": "nonpayable",
      "type": "function"
    },
    {
      "constant": false,
      "inputs": [
        {
          "name": "_courseId",
          "type": "string"
        }
      ],
      "name": "Signup",
      "outputs": [],
      "payable": true,
      "stateMutability": "payable",
      "type": "function"
    },
    {
      "constant": false,
      "inputs": [
        {
          "name": "_courseCompletedId",
          "type": "string"
        }
      ],
      "name": "AttendanceTaking",
      "outputs": [],
      "payable": false,
      "stateMutability": "nonpayable",
      "type": "function"
    },
    {
      "constant": true,
      "inputs": [
        {
          "name": "a",
          "type": "string"
        },
        {
          "name": "b",
          "type": "string"
        }
      ],
      "name": "compareStrings",
      "outputs": [
        {
          "name": "",
          "type": "bool"
        }
      ],
      "payable": false,
      "stateMutability": "view",
      "type": "function"
    }
  ],
  "bytecode": "0x608060405234801561001057600080fd5b50336000806101000a81548173ffffffffffffffffffffffffffffffffffffffff021916908373ffffffffffffffffffffffffffffffffffffffff160217905550610b8a806100606000396000f300608060405260043610610083576000357c0100000000000000000000000000000000000000000000000000000000900463ffffffff16806327e235e3146100885780636efc81f1146100df578063950936a91461013b578063a6c807a9146101c0578063afcc8a591461029a578063bed34bba14610303578063cd4e0025146103ca575b600080fd5b34801561009457600080fd5b506100c9600480360381019080803573ffffffffffffffffffffffffffffffffffffffff169060200190929190505050610437565b6040518082815260200191505060405180910390f35b610139600480360381019080803590602001908201803590602001908080601f016020809104026020016040519081016040528093929190818152602001838380828437820191505050505050919291929050505061044f565b005b34801561014757600080fd5b506101be60048036038101908080356000191690602001909291908035600019169060200190929190803590602001908201803590602001908080601f01602080910402602001604051908101604052809392919081815260200183838082843782019150505050505091929192905050506106d7565b005b3480156101cc57600080fd5b50610201600480360381019080803573ffffffffffffffffffffffffffffffffffffffff1690602001909291905050506107fd565b604051808460001916600019168152602001836000191660001916815260200180602001828103825283818151815260200191508051906020019080838360005b8381101561025d578082015181840152602081019050610242565b50505050905090810190601f16801561028a5780820380516001836020036101000a031916815260200191505b5094505050505060405180910390f35b3480156102a657600080fd5b50610301600480360381019080803590602001908201803590602001908080601f01602080910402602001604051908101604052809392919081815260200183838082843782019150505050505091929192905050506108bf565b005b34801561030f57600080fd5b506103b0600480360381019080803590602001908201803590602001908080601f0160208091040260200160405190810160405280939291908181526020018383808284378201915050505050509192919290803590602001908201803590602001908080601f01602080910402602001604051908101604052809392919081815260200183838082843782019150505050505091929192905050506109a2565b604051808215151515815260200191505060405180910390f35b3480156103d657600080fd5b506103f560048036038101908080359060200190929190505050610a7b565b604051808273ffffffffffffffffffffffffffffffffffffffff1673ffffffffffffffffffffffffffffffffffffffff16815260200191505060405180910390f35b60016020528060005260406000206000915090505481565b60008060009054906101000a900473ffffffffffffffffffffffffffffffffffffffff1673ffffffffffffffffffffffffffffffffffffffff163373ffffffffffffffffffffffffffffffffffffffff161415156104ac57600080fd5b6104eb6040805190810160405280601381526020017f696e74726f2d746f2d626c6f636b636861696e00000000000000000000000000815250836109a2565b15610551576000341415156104ff57600080fd5b34600160003373ffffffffffffffffffffffffffffffffffffffff1673ffffffffffffffffffffffffffffffffffffffff168152602001908152602001600020600082825401925050819055506105b5565b671bc16d674ec800003414151561056757600080fd5b34600160003373ffffffffffffffffffffffffffffffffffffffff1673ffffffffffffffffffffffffffffffffffffffff168152602001908152602001600020600082825401925050819055505b600260003373ffffffffffffffffffffffffffffffffffffffff1673ffffffffffffffffffffffffffffffffffffffff168152602001908152602001600020905080600301829080600181540180825580915050906001820390600052602060002001600090919290919091509080519060200190610635929190610ab9565b50507f97bd925192b2527661da2ace51721910d6f7b40ced8092dd14e18195d05ce30c826040518080602001828103825283818151815260200191508051906020019080838360005b8381101561069957808201518184015260208101905061067e565b50505050905090810190601f1680156106c65780820380516001836020036101000a031916815260200191505b509250505060405180910390a15050565b600080339150600260008373ffffffffffffffffffffffffffffffffffffffff1673ffffffffffffffffffffffffffffffffffffffff1681526020019081526020016000209050848160000181600019169055508381600101816000191690555082816002019080519060200190610750929190610ab9565b507f4fabdca31171a96e9302306e8b27825c123adbdc6603029a19caa81ac47cf71c8560405180826000191660001916815260200191505060405180910390a160038290806001815401808255809150509060018203906000526020600020016000909192909190916101000a81548173ffffffffffffffffffffffffffffffffffffffff021916908373ffffffffffffffffffffffffffffffffffffffff160217905550505050505050565b6002602052806000526040600020600091509050806000015490806001015490806002018054600181600116156101000203166002900480601f0160208091040260200160405190810160405280929190818152602001828054600181600116156101000203166002900480156108b55780601f1061088a576101008083540402835291602001916108b5565b820191906000526020600020905b81548152906001019060200180831161089857829003601f168201915b5050505050905083565b60008060009054906101000a900473ffffffffffffffffffffffffffffffffffffffff1673ffffffffffffffffffffffffffffffffffffffff163373ffffffffffffffffffffffffffffffffffffffff1614151561091c57600080fd5b600260003373ffffffffffffffffffffffffffffffffffffffff1673ffffffffffffffffffffffffffffffffffffffff16815260200190815260200160002090508060040182908060018154018082558091505090600182039060005260206000200160009091929091909150908051906020019061099c929190610ab9565b50505050565b6000816040518082805190602001908083835b6020831015156109da57805182526020820191506020810190506020830392506109b5565b6001836020036101000a038019825116818451168082178552505050505050905001915050604051809103902060001916836040518082805190602001908083835b602083101515610a415780518252602082019150602081019050602083039250610a1c565b6001836020036101000a03801982511681845116808217855250505050505090500191505060405180910390206000191614905092915050565b600381815481101515610a8a57fe5b906000526020600020016000915054906101000a900473ffffffffffffffffffffffffffffffffffffffff1681565b828054600181600116156101000203166002900490600052602060002090601f016020900481019282601f10610afa57805160ff1916838001178555610b28565b82800160010185558215610b28579182015b82811115610b27578251825591602001919060010190610b0c565b5b509050610b359190610b39565b5090565b610b5b91905b80821115610b57576000816000905550600101610b3f565b5090565b905600a165627a7a723058204a2b12381ea4d8948cb07fed879e1f42d4b76d289e8f502e46b9d8917bf808020029",
  "source": "pragma solidity 0.4.24;\n\ncontract Owned\n{\n    address owner;\n    \n    constructor() public {\n        owner = msg.sender;\n    }\n    \n   modifier onlyOwner {\n       require(msg.sender == owner);\n       _;\n   }\n}\n\ncontract SignupAndAttendance is Owned\n{\n\tstruct Student\n\t{\n\t\t//bytes32 courseId;\n\t\tbytes32 name;\n\t\tbytes32 email;\n\t\tstring loginDate;\n\t\tstring[] signups;\n\t\tstring[] coursesCompleted;\n\t}\n\n\tmapping (address => uint) public balances;\n\tmapping (address => Student) public students;\n\n\taddress[] public studentAccounts;\n\n\tevent StudentLoginEvent(bytes32 _name);\n\tevent CourseSignupEvent(string _courseId);\n\n\tconstructor() public \n\t{\n\n\t}\n\n\tfunction StudentLogin(bytes32 _name, bytes32 _email, string _date) public\n\t{\n\t\tvar _address = msg.sender;\n\t\tvar student = students[_address];\n\n\t\tstudent.name = _name;\n\t\tstudent.email = _email;\n\t\tstudent.loginDate = _date;\n\n\t\temit StudentLoginEvent(_name);\n\t\tstudentAccounts.push(_address);\n\t}\n\n\tfunction Signup(string _courseId) onlyOwner payable public\n\t{\n\t\t//require(courseId >= 0 && courseId <= 2);\n\t\t//bytes32 memory temp = \"intro-to-blockchain\";\n\n\t\t//bytes32 test = stringToBytes32(_courseId);\n\t  \t\n\t  \tif(compareStrings(\"intro-to-blockchain\", _courseId))\n\t  \t{\n\t\t\trequire(msg.value == 0 ether);\n\t\t\tbalances[msg.sender] += msg.value;\n\t  \t}\n\t  \telse\n\t  \t{\n\t  \t\trequire(msg.value == 2 ether);\n\t\t\tbalances[msg.sender] += msg.value;\n\t  \t}\n\n\t  \tStudent storage student = students[msg.sender];\n\t\tstudent.signups.push(_courseId);\n\n\t\temit CourseSignupEvent(_courseId);\n\n\t  //Return the total number of courses signed up for by the attendee.\n\t  //return attendees[msg.sender].signups.push(courseId) - 1;\n\t}\n\n\tfunction AttendanceTaking(string _courseCompletedId) onlyOwner public\n\t{\n\t\tStudent storage student = students[msg.sender];\n\t\tstudent.coursesCompleted.push(_courseCompletedId);\n\t}\n\n\t// function EmitCourseSignupSucessful(_courseId)\n\t// {\n\t// \temit CourseSignupSucessful(_courseId);\n\t// }\n\n\t// function EtherToWei (uint _ether) view public returns (uint)\n\t// {\n\t// \treturn _ether * 1000000000000000000;\n\t// }\n\n\t//****** Taken from https://ethereum.stackexchange.com/questions/30912/how-to-compare-strings-in-solidity\n\tfunction compareStrings (string a, string b) view public returns (bool)\n\t{\n       return keccak256(a) == keccak256(b);\n   \t}\n   \t//******\n\n\t// //****** Taken from https://ethereum.stackexchange.com/questions/23549/convert-string-to-bytes32-in-web3j\n\t// function stringToBytes32 (string _string) view public\n\t// {\n\t//   byte[] storage byteValue = string.getBytes();\n\t//   byte[] storage byteValueLen32 = new byte[32];\n\t//   System.arraycopy(byteValue, 0, byteValueLen32, 0, byteValue.length);\n\t//   return new Bytes32(byteValueLen32);\n\t// }\t\n\t// //******\n}",
  "sourcePath": "/home/fritzlim/Desktop/Projects/ConsenSys/2018DeveloperProgram/EthereumAttendanceTaking/contracts/SignupAndAttendance.sol",
  "compiler": {
    "name": "solc",
    "version": "0.4.24+commit.e67f0147.Emscripten.clang"
  },
  "schemaVersion": "2.0.1",
  "updatedAt": "2018-08-24T13:44:44.326Z"
}